:020000040000fa
:08000000c01404000000000020
:020000040000fa
:10280000c01404000000000030710400000000004b
:10281000307104000000000030710400000000006e
:10282000307104000000000030710400000000005e
:10283000307104000000000030710400000000004e
:10284000307104000000000030710400000000003e
:10285000307104000000000030710400000000002e
:102860003071040000000000125404000000000059
:10287000307104000000000030710400000000000e
:1028800030710400000000003071040000000000fe
:1028900030710400000000003071040000000000ee
:1028a00030710400000000003071040000000000de
:1028b00030710400000000003071040000000000ce
:1028c00030710400000000003071040000000000be
:1028d00030710400000000003071040000000000ae
:1028e000307104000000000030710400000000009e
:1028f000307104000000000030710400000000008e
:10290000307104000000000030710400000000007d
:10291000307104000000000030710400000000006d
:10292000307104000000000030710400000000005d
:10293000307104000000000030710400000000004d
:10294000307104000000000030710400000000003d
:10295000307104000000000030710400000000002d
:10296000307104000000000030710400000000001d
:10297000307104000000000030710400000000000d
:020000040000fa
:102980006fe421000e7f22000e018800000000008d
:102990000c000700c0d22600010020001100070033
:1029a000000020000000e0000200320000000200f1
:1029b00000000000b84d0200000000000040da00f6
:1029c0000000fe004440a900e03220000000e000ca
:1029d0000300320000002000a00188004440a8004d
:1029e0000000060091018800800078000000eb00e4
:1029f00015003700e280400032a0b4009101ba0017
:102a0000e280400032a0b4009102ba00e2804000af
:102a100032a0b4000002eb00472bde00f507b20045
:102a2000602ce10004003a000059eb008301e9004a
:102a3000fdff3e00040037006128e1000100320084
:102a40000082eb00040007001101ba000200e00060
:102a5000e8ff3a00000006003159ba008301e9009e
:102a60000c0032002159ba008301e900080032004d
:102a70000400e00003003a00e280400032a0b4000d
:102a8000f5ff370011d9ba008301e900faff3a00d7
:102a90008100e800e180400032a0b40000000600a0
:102aa0000000000000000000000000000000000026
:102ab0000000000000000000000000000000000016
:102ac0000000000000000000000000000000000006
:102ad00000000000000000000000000000000000f6
:102ae000800078001106b100030035009101b100ab
:102af00001003c000050a1000000060080007800aa
:102b00001104b100030035009101b10001003c0047
:102b10000050a00000000600889fbe0080047800de
:102b2000109d80000000e00003003a00470007000d
:102b30000000e0000a003500109d80000900e00060
:102b400002003a0000047800060037000004780014
:102b5000090040003d0007000000e00001003d00ca
:102b60000084eb00080078004f04be00000006005f
:102b70000a00fa0080017800e20f500028003e00b1
:102b8000b0cf8000e10f5000080032008023200009
:102b90000000e0000500320004232000252320006f
:102ba0004623200080017800040037000422200022
:102bb000252220004622200083222000144090007d
:102bc0000004e000040035008009eb001440900090
:102bd0000074a00010429800154090000028a30047
:102be00003003a00154090000024a0009042980095
:102bf0008001eb0007003700154090000008a3009b
:102c0000fdff320063c078000000fb00000b78007d
:102c10008301e800828f5100f7ff3a000800370077
:102c200030002000b0bf9f00c3bf9f00d1bf9f00f6
:102c3000e2bf9f006a80570000c0da006fb99700ba
:102c4000020078000080fa00000006008000780092
:102c50000000e00004003a0060c42100109d8800dc
:102c600001017800060037000081eb0060e42100dc
:102c7000808f500002003e00119d88000001eb0093
:102c80000200780000000600889fbe008a9fbe00f8
:102c9000010578000100e0000400350008003c0058
:102ca0000000e00020003200050037006000100046
:102cb000e080180002003b0001f02c001a003700f1
:102cc0000004be006011b8006b0920000982cf002b
:102cd000020039000882cf000441b000694252006e
:102ce0000e00320008003b00828171006101640027
:102cf0008904d1000884d3008b05e8000442e80071
:102d0000f9ff3a00050037000804440089844c00ac
:102d10008b05e9000442e900fbff3a00e9000700e7
:102d20000af0a70001f0a0004f05be004f04be004e
:102d30000000060003f0a200889fbe008a9fbe002c
:102d40008c1f7800050107000c0133006450e1007e
:102d50004f0032006420e1005200320003826c0018
:102d600007003b000905d0000306d000820f540085
:102d70000c065d0002003900020032008901780073
:102d8000030678008582550004003d000003fd0025
:102d90008103fd008502ea008b854200840f7200ea
:102da00002003b0060001000e08018006011b800d5
:102db0000005eb007a28e1000a00390006007800df
:102dc000c75ddd00f707b200878075002d00370072
:102dd000828171000a017800610560008180d10064
:102de0000080d3008502e900f9ff3b0006044000a3
:102df0008784480002003b0060041400e0841c004b
:102e00000988a300070032008a8171008281710065
:102e1000610164008904d1000884d3008b05e800b7
:102e2000170037000978a30013003a000b00e000f8
:102e3000130034008b05e9000804440089844c0029
:102e40000a4474000978a3000d003a000b00e0006a
:102e5000070034008b05e9000804440089844c0015
:102e600001003a000b0020000978a300f7ff3200b0
:102e70000001eb0002003700828171000a01780036
:102e8000900007000cf0a70001f0a000c40037007c
:102e90006420e10002003a00838f6c00c40033001c
:102ea0000801be000200be00bd003700889fbe00c2
:102eb0008a9fbe008c1f7800a8000700af00330077
:102ec00003866c006450e1002e0032006420e100b3
:102ed000330032006150e1002f0032006120e10038
:102ee0003100320085855500eb07b0000900200055
:102ef00008042000050037000804440089844c00c1
:102f00000a0031000603430087834b000001530091
:102f100081815b00f8ff33000203be000800a000bf
:102f20000804440089844c00f6ff3900c639dd00ee
:102f30008301730001003200130020008904d100d6
:102f40000884d3000998a300050032000800a700f8
:102f50000300a0008904d1000884d3008b05e80099
:102f60008904d1000884d3000001eb000281d20063
:102f70005400070001f0a1000cf0a70001f0a00030
:102f8000870037006420e100890032000801be009c
:102f90000200be00f7ff37006120e100840032002c
:102fa0006000b800f3ff37000000200001f82700a0
:102fb000f0ff3700889fbe008a9fbe008c1f7800fc
:102fc000660007006d00330003866c006450e1006a
:102fd000240032006420e100270032006150e1004b
:102fe000220032006120e100210032008b85420086
:102ff000eb07b1000134b800003ab8000804420001
:1030000089844a00013ab8000030b8008880400046
:1030100009014a000400330000004000818048009c
:10302000020149008b05e900c909dd008301700038
:103030000100320013002000c814de004814dd0037
:103040004709de001200b200c808de0008847000e4
:103050001c00070001f0a1000cf0a70001f0a00087
:103060004f0037006120e100510032000801be002e
:103070000200be00f7ff37006150e100fcff3a009c
:103080004b0037006022b800060220000000d0008c
:103090008180d2000482d2008582d2000000a0008c
:1030a0000202520083825a000300310002024200f1
:1030b00083824a000000a1000603e900f3ff3a0002
:1030c0000000060081002000618055000b003d00db
:1030d0000b00200061fe2f000100e1001d00340004
:1030e00082817100610164008904d1000884d300e9
:1030f0000000e800faff3a0071002000610064005f
:103100000300700002006000090032006104440006
:10311000e0844c000988a500050032008b05e8001a
:103120006808e10002003a008904d1000884d30055
:10313000f20f20000258e10005003d00c75ddd00f0
:10314000f907b200898075000800780000000600c9
:103150000bf827008b007800000005000004be007b
:10316000160007000003be000405be000200be00fa
:1031700012000700844f7500000006000200be0028
:103180006450e100050036006420e10002003600d2
:103190000968a30001003a000800be000160a00019
:1031a0004f0678004f05be004f04be000000060029
:1031b000f0ff2f00f1ff2700f9ff3700c70ade00fc
:1031c000f107b200f50fb20008003200e1cf420073
:1031d000020032000170a00024000500810f700081
:1031e000010032000408050044000500810f700052
:1031f00002003a00140005008502e90000004000ca
:1032000081c04800fcff3b000170a00024000500c5
:103210002800fa00889fbe008a9fbe008c9fbe00d7
:1032200003866b00170307000028a30064003a0020
:103230000128a30067003a000008a30062003a00da
:103240000108a30065003a001e009000be0890002f
:1032500081064000ed3fb100f4805700ee01900080
:10326000111ab8008e099000311bb8009e09900019
:10327000311cb800511db800f48557004600070006
:10328000fe0190003a0007008b85e8003e00070031
:103290008e09900040000700ee0190003400070006
:1032a0008b85e800380007008e0990004000070079
:1032b0009e0990001b18b800890440000a85480048
:1032c000fe019000340007008b85e80038000700fd
:1032d000ee019000300007008e0990001b18b80026
:1032e000890440000a8548000a98a30008003a00b3
:1032f0000402420085824a0006034b0087834b008c
:1033000008044c0089844c000a054d008d06e90034
:1033100084827200850273004c3add0085027200df
:103320000100320015002000443ade001400b20013
:103330004538de00cb45dd000b007000c540de00e7
:10334000cb4ddd008b8070004549de00cb55dd00a4
:103350000b017100c551de000d037800e202070089
:1033600003f0a1000cf0a70003f0a000d902370081
:103370001b18b8008502400006834800e0834b001c
:1033800060044c00070037001b18b800060340001b
:1033900087834800faff37001b18b80087034000f6
:1033a00008844800e0844c0060054d0000000600e1
:1033b0001b18b8000804400089844800faff370051
:1033c0000108a300c0023a005800be005801be0028
:1033d000e3ff37000008a300bb023a0009047800ad
:1033e000f9ff37008103780074ff07000001be0079
:1033f0006000b8000478a30013003a006220e100e6
:1034000015003e000d0039008301d1000281d30078
:103410008180d3008301d1000281d3008180d30059
:103420008301d1000281d3008180d3000538b00030
:10343000c42add00f300b2008381720007f0a70008
:1034400003f0a00000000600f3ff2700f2ff2f00aa
:103450006110b900fbff370003ff2700f7ff3700bb
:103460008f1fd100cc0207008f87e9000000e00029
:1034700000000600801feb00c70207008f87e900ed
:103480000000e000000006001400fa00889fbe0063
:103490008a9fbe008c9fbe000005be000206be00d3
:1034a000680047000c90be000a90be00e3020700cf
:1034b0006400e1001a00320016003e006100e100e5
:1034c0001a0032006e049000fe0490000e0b900073
:1034d0009e0b90006011b8009e0590000b38b10063
:1034e000d501200082817100610164008703d10051
:1034f0000683d3008984d3000884d3008502e900c1
:10350000f8ff3a00effe07000df0a70001f0a00061
:1035100070023700f1ff2700f0ff2f006d02370027
:1035200001f8270000002000f7ff37006000b80016
:10353000f5ff3700e80207000509780000000600e3
:10354000809feb00940207008f87e9000000e000f5
:10355000000006002800fa00889fbe008a9fbe0077
:103560008c9fbe0007067800878669000c003b0030
:10357000030478008704780008f0a10009f0a10096
:10358000840f5000858f5800860f5900890f5c000a
:10359000030033000cf0a20001003a000cf0a1007f
:1035a000380207006400e1005f0032007801470044
:1035b0006408e100610032006c0147007485570027
:1035c0003200be001201be003a04be001a05be0061
:1035d0001e039000be0a90008503530006003d00c4
:1035e0000004fd008104fd000205fd008305fd00cf
:1035f0008703ea00050378000df8a30004003200f9
:1036000060041400e0841c0060051d00e0851d00be
:103610006022b8007d0320000d38e1008006eb0039
:103620000b0039004433dd00f300b2008301730066
:1036300039003700848272000d027800e1066400d0
:103640008b85d1000a85d3008984d3000884d300f8
:103650008703e900f7ff3b0008004000898048002d
:103660000a0149008b81490004003b006000100002
:10367000e080180060011900e08119000358a300e0
:10368000090032008d827200848272006102600043
:103690008301d1000281d3008180d3000080d30058
:1036a0000603e8001b0037000348a30017003a0098
:1036b0000600e000170034000603e9000d00a30037
:1036c00000004800818048000201490083814900d0
:1036d0000348a3000f003a000600e0000900340090
:1036e0000603e90000004000818048000201490013
:1036f0008381490001003a000003eb000348a30066
:10370000f5ff32006022b8000200370084827200a8
:1037100061826600f401070003f0a1000cf0a7002d
:1037200003f0a000eb013700640147006408e100ea
:1037300002003a000df8a300e3013a003200be0097
:103740001201be00e30137001400fa00889fbe009a
:103750008a9fbe008c9fbe000004be000205be0012
:10376000680047000a90be000890be0033020700c0
:103770000070a7000bf0a1000bf8a30020003a0096
:103780009e0990000e099000fe0090006e009000cf
:103790009e0290003443200084825200cd0132000a
:1037a0000a003c00b4fc2f000428e100140034009f
:1037b0008301d1000281d3008180d3000080d30037
:1037c0008502e800faff3a00c2013700b400200089
:1037d0000428e10007003c00000040008180480010
:1037e00002014900838149008502e900faff3a009d
:1037f000b801370003002800020020000100370054
:103800006011b8006000b800b20137002800fa006b
:10381000889fbe008a9fbe008c9fbe0003866b00ff
:10382000980107006400e100440032006408e100f0
:103830004a0032006100e100460032006108e10008
:1038400049003200ec0647006000b8003d02be00af
:103850003d03be00f48657006011b8003d04be0071
:103860003d05be007d0320000b0037000000a000d6
:103870008d06e900130032000402420085824a00ee
:1038800006034b0087834b00000040008180480006
:1038900002014900838149000802520089825a00ce
:1038a0000a035b008b835b00f0ff3b0008024200d1
:1038b00089824a000a034b008b834b008d06e90086
:1038c000edff3a008482720086827200f707b20030
:1038d0008782720001003200150020001e04900053
:1038e0003e0b900006035400e63fb0000368a300bf
:1038f000070032000000a7000500a0008301d100ee
:103900000281d3008180d3000080d3000603e80049
:103910008301d1000281d3008180d3000080d300d5
:103920000002eb000482d2006f01070003f0a10047
:103930000cf0a70003f0a000660137006402470006
:103940006408e100600132003400be003401be00b2
:10395000f6ff37006108e1005b0132006011b8003a
:103960006000b800f1ff370003ff270002002000cd
:10397000fbff3700889fbe00830478000300e0004f
:103980002c00350003003c0000827000040271002e
:103990002600320036432000c50020008383cf007c
:1039a0000a0039000541b1008283cf0007003900c9
:1039b0000541b1008183cf00040039000541b10009
:1039c0008083cf00010039000541b10085c3530059
:1039d0006022b800120032000a003b0084827200ac
:1039e000610260008301d1000281d3008180d30095
:1039f0000080d3000603e8008743e800f7ff3a00a1
:103a000007003700000040008180480002014900a3
:103a1000838149000603e9008743e900f9ff3a0082
:103a20003101070009f0a70003f0a0004f04be0019
:103a30000000060060001000e0801800600119001e
:103a4000e0811900d3ff3b00033e2c00f7ff370055
:103a500007f0a200bffe3700881f7800000478003e
:103a60005001be004000be000400400085804800b8
:103a70000601490087814900009cbe000294be00f7
:103a80000400e1000588e1000690e1000798e100ec
:103a900002003100680044001008e8004f0478007c
:103aa00000000600f4874700889fbe008a9fbe0082
:103ab0008c9fbe008e1f78000205be000004be0071
:103ac000d4b79f00e5b79f00f6b79f0087bf9f0060
:103ad0000000eb00c0b79f00b0b79f00a0b79f00e9
:103ae00090b79f0080b79f000d042000bfb09700e3
:103af0004fb09700000140000000e0000f003d00c3
:103b00004f08de0000007100c0b79f009e00070054
:103b100001003d0012002000a100070001003d004f
:103b200012002000a6000700b1000700b600070041
:103b30000f004000c8ff0700220037004f08de00da
:103b400000067100ccb79f008f00070001003d0008
:103b5000120020009200070001003d00120020002a
:103b600097000700a20007000fb297009fb29700ce
:103b70002fb39700bfb39700a900070000005200c1
:103b800081805a0002015b0083815b0080b79f0047
:103b900091b79f00a2b79f00b3b79f000007eb004b
:103ba0009f0007000020e10001a8e10002b0e10051
:103bb00003b8e100010031001e0020000e00560095
:103bc000c0b79f004fb297000400e0000700350027
:103bd00010002000010020006011b80008047000ef
:103be000898470000a0571008b8571008d06e900db
:103bf000beff3a000400e00003003d008200070021
:103c00000f00400094ff07004fa897000000e0005d
:103c100004003a000fb497009fb497002fb59700a7
:103c2000bfb59700940007004f0778004f06be000d
:103c30004f05be004f04be004f01b100000006005a
:103c4000881f780018002000881f780095ff070063
:103c50008f87e9004f04780000000600801feb000a
:103c600090ff07008f87e90000000600889fbe00d4
:103c70008a9fbe008c1f78006e00070007003d0081
:103c800073000700e00f5b00e08f5b0007003d0062
:103c9000320007000006eb00040037003400070084
:103ca00002003d002a0007001c00200072000700ef
:103cb000e3ff07000203be000002be000c00e000ac
:103cc00001003200220007000400be000601be0011
:103cd0004f0678004f05be004f04be0000000600ee
:103ce000889fbe008a9fbe008c1f7800510007008d
:103cf00005003d0056000700e00f5b00e08f5b0011
:103d000006003d00040037001900070003003d00d5
:103d10006000b8006011b8001000070056000700ee
:103d2000ceff07000203be000002be000c00e00050
:103d300001003200060007000400be000601be00bc
:103d40004f0678004f05be004f04be00000006007d
:103d50006000b8006011b800000037000402500095
:103d60008582580006035900878359000000060029
:103d70000006eb00e00f5200e08f5a00e00f5b00fe
:103d8000e08f5b00000006000180400090b79f00bc
:103d90000001eb008fb097000100e000000006007a
:103da0000200700090b79f000180400080b79f0024
:103db0000001eb00ffa897000100e00000000600f2
:103dc0000200700080b79f00018040006faa97003a
:103dd000cf20de0001007000f0af9f00040242001f
:103de000250007004f18de000002720000000600e8
:103df000e4af9f000804440089844c000a054d008c
:103e00008b854d00000006003fb29700cfb29700af
:103e10005fb39700efb3970000fe2f00000006008d
:103e20003fb09700cfb097005fb19700efb1970018
:103e3000000006000205be000004be00e00f5000b6
:103e4000e08f5800e00f5900e08f59000000060095
:103e50006000b8006011b800080450008984580060
:103e60000a0559008b8559001c002000e00f520004
:103e7000e08f5a00000006000800be000a01be00e4
:103e800000000600680447000294be000094be00d3
:103e9000fc0447008694be008494be0009007800ac
:103ea00066000700080078006400070099007800a9
:103eb000814f70000b003b000800be00930007001c
:103ec0004f00b10003003700f3ff2700f2ff2f007f
:103ed0006110b9004f06be004f05be004f04be0082
:103ee0000080fa00000006001800200057002000a3
:103ef000080453000d003d000600200097fc2f0031
:103f00000740e1001e0034008482720061026000fc
:103f10008301d1000281d3008180d3000080d300cf
:103f20000804e800f8ff3a00470020006104600040
:103f300005047400040464000d00320061004000b8
:103f4000e080480060014900e081490003b8a50015
:103f5000070032000603e8006538e10004003a007b
:103f60008301d1000281d3008180d3000080d3007f
:103f7000f87f20000830e1000300350008037800d6
:103f80006000b8006011b8004433dd00f300b200f7
:103f90008301730000000600889fbe008a9fbe0058
:103fa0008c9fbe000404be000605be00809fbe00bc
:103fb000829fbe0063000700040678000800be0070
:103fc0000a01be005f000700840678004f03be00b0
:103fd0004f02be008d4f76007fb097001300330074
:103fe000f0ff2f008b8f6b0006003b000d06660074
:103ff0000c00a7000a00370007f0a6001000200000
:104000000a003700880f5200898f5a008a0f5b0020
:104010008b8f5b00030039001000200001003e0080
:104020000000200007f0a7000000ea004f06be00d5
:104030004f05be004f04be0000000600800078005f
:104040005002be005003be004439de00f700b2004b
:10405000f37f200003016100090032000218e10033
:1040600016003a008501720083017300838173009a
:104070000008200015003a0040002000130037001f
:1040800085017200830173008381730005003a008b
:1040900004a8be0006a8be00100020000b003700d8
:1040a0000201e9000402420085824a0006034b0037
:1040b00087834b000748a300f9ff32000740a000a8
:1040c00004a8be0006a8be002000200080009800c2
:1040d00092009800000006000003be0037fc0700b5
:1040e0006220e100020032000600be00050005006b
:1040f000e507b100f107b20004f0230084807000ee
:1041000007f0a70001f0a00024000500e4824000b1
:104110001078a30007003200640240001178a30069
:104120003400be001401be00040032000330a700ba
:10413000000006003500be001501be000330a000df
:104140000000060005ff270005826100070032001d
:104150000428e100010032002400050006000700e9
:1041600001003a00440005000408050002000700b1
:10417000f9ff3a00140005006f82610081027000af
:1041800085027100850272000000060016c2bf00a1
:104190000008a300fdff3a0016c2bf000018a300ec
:1041a000faff3a0016c2bf000028a300f7ff3a004a
:1041b00016c2bf000038a300f4ff3a0016c2bf00c9
:1041c0000048a300f1ff3a0019c2bf000068a30035
:1041d000eeff3a00000006001602a80000000600ec
:1041e0000080fb009010880018c2bf0001c8b30017
:1041f000014060000080fb000000e9004f00de008d
:104200000000e900000006001622a80000000600d9
:104210001662a80016c2bf000038a300fdff3a00d6
:1042200018c2a900801080000080fb00000006007a
:1042300016a2a8001682a800000006001642a800d8
:104240000000060016a2a9001682a80000000600c1
:10425000ef36b000889fbe008a9fbe008c9fbe00d4
:104260008e1f7800e0b79f000104780002077800f5
:10427000f3b79f00f0312000800f510004003e0092
:1042800060cc2f0000804700c0b79f0005003700ba
:104290000200e800b3000700c0b79f000000e00084
:1042a0006d0032000040eb00cfb0970080707f00bf
:1042b0000001eb00b2879c000800e900c0879c0069
:1042c000b2b79f002000200080bf9f00bfb09700c2
:1042d0004208dd0062c82f000f014100620678002d
:1042e0000fb89700e00579008100e900b1b79f00a1
:1042f0006400500080bf9f004208dd0002054000be
:104300000b00460022002000110009000200d80026
:104310008000fd0001f0b9006fb1970080004100fe
:104320000e0178004fb09700530107008c0478000d
:104330000b047800010037008904e8000ec8b900ba
:104340006fb1970000004100d0b79f00cfb0970039
:104350007fb19700020001000000e00002003d0074
:10436000f5ff37000804e9000ec0b9006fb19700ef
:10437000800641008d0078004fb097007fb1970014
:10438000020001000000e000f6ff3500888f5400b5
:1043900008003c000d017800dfb097000e007800a7
:1043a0003c0107008904e8000804e900888f5400f4
:1043b000e2ff34008c00540009805500808f5000cb
:1043c0000d003d008b8f540009003d003fb0970069
:1043d0000000e800b0b79f008fb89700e48040006d
:1043e00081bf9f0064054500090d78001b059800fa
:1043f000880578000c003700880f560009003d0042
:104400003fb197000201e800b2b79f000fb89700d4
:104410006400400080bf9f00640545000c0d7800db
:1044200018059800090678008b0f5600b4ff350078
:10443000bfb097000100e000a4ff3d0060cc2f005a
:10444000008047004fb19700800f510002003200fa
:1044500002007800d50007004f0778004f06be0025
:104460004f05be004f04be00ef1fb1000f17b10093
:1044700000000600800178000001780031407800db
:10448000005978000004e000fcff3a0003007800c7
:104490000000060000037800800278000202780025
:1044a0008001eb00080037000402e90063c07800d7
:1044b000805a78008301e8000004e00002003a001e
:1044c0008000eb0006003700828f5100f6ff3a00b3
:1044d000fbff37000040eb0080f07a008100e8002d
:1044e000848f5000fbff3a000600780000000600b1
:1044f0000c00fa00889fbe0000047800cfb097003f
:10450000f0ff2700d0bf9f008004eb0099bf9f0001
:1045100088bf9f00a8bf9f00200c2000b0bf9f0055
:1045200078815700708057003b0107000fb8970053
:10453000094878000fb89700080450000800780078
:104540004f04be000080fa000000060080007800e2
:104550003004e000feff3a00010050000000e900d6
:1045600000000600889fbe008a9fbe008c9fbe0090
:1045700000017800819e21001100e0000b003a004c
:10458000c09e210040cf880020cf880061cf8800e6
:1045900031cf8800214090000004a000a040980086
:1045a000614090000004a000e0409800e700410056
:1045b000c208de00c20cdd0034cf80006dc42100d3
:1045c00060e421000d05500022002000811f7800ca
:1045d000110009000205d80000067800cf0078001d
:1045e000c308dd00e48540008001eb0066c42100c3
:1045f000859e2100010037000102780024409000d0
:104600000008a300020032000a003700110a7800f7
:1046100094007800214090000008a300fbff3200c6
:1046200009014200828f500002003900840f5100be
:104630004600310094007800848f5000eeff3e0069
:10464000868f500002003900858f5000eaff390044
:1046500020cf8000800f52004f003a00858f50001d
:104660004d003a008301e800e18f5100e2ff36007f
:104670008c8f5400040036008a8f540002003100f1
:104680000b04780012003700614ab8006151b9008c
:10469000b0ff2f000100200002005000838058006e
:1046a000800f5200818f5a00020035000904780003
:1046b000070037000d80540092e421000200400002
:1046c000110009000a80d8000a80b90000047800af
:1046d0000800780010f9070080017800e10f400021
:1046e0002d00320020cf80000308780022cf800008
:1046f00064004100a2409000808f5100020032000f
:104700000104a000010037000104a100214198002c
:1047100008804100640050008009780020cf8800a4
:10472000829e21000208780021cf80002140900065
:104730000004a000a0409800234090000004a100c5
:10474000a041980002027800a7ff370032cf88000e
:10475000828f50000900360092007800209e2100d0
:10476000a24190000348780001cf88001409780026
:104770008040eb0030cf80002140980030cf800097
:10478000000a7800244090000004a0002042980015
:1047900064004200010037000000eb004f06be003d
:1047a0004f05be004f04be0000000600640050002c
:1047b00030cf8800a04090000104a1002140980063
:1047c00000000600889fbe008a9fbe00000578009a
:1047d000e401500013001000c285de002340900069
:1047e0000008a3000400320033cf8800234090006b
:1047f0000004a100a04198000100780059ff0700c3
:10480000000478000000e000170032008a0f50001a
:104810001500320060b8970008005000c284de0026
:10482000898f550001003600890578004259dd0066
:104830008a007800080078000f0007008a0f5400f3
:10484000090031004248dd00000044008a0f50009a
:10485000050036000a0050000000440002cf80002e
:1048600013cf80000288be00080078004f05be000c
:104870004f04be00000006008001eb00020037007c
:1048800061f079008301e800828f5100fcff3a005b
:1048900000000600000278008001eb0004003700f1
:1048a0001140780092587800005978008301e800a0
:1048b000848f5100faff3a0000000600889fbe0076
:1048c0008a1f7800804078000004e00021003d004d
:1048d0008040ea00d0c6b30080cf50000900340009
:1048e0008104fb0042062000110009008204d80068
:1048f00000017800010078004311dd000aa22100c8
:104900001f0037000100fb0003a22100390037001f
:10491000a2002000110009000200d8000001780068
:10492000010078004311dd00030141004300dd0078
:10493000030040003002be002003be004220900071
:10494000d2209000f22190006221900030fa0700fe
:104950002e003700d0c6b30080cf500023003400b3
:104960008104fb0042062000110009008204d800e7
:1049700000017800010078004311dd000aad21003c
:104980000a014100a8002000110009000800d80019
:104990004300dd000a00400040229000d022900039
:1049a00060239000f023900002889000928890008d
:1049b000b28990002289900015fa0700801f7800c4
:1049c00001027800110009008804d8000102fd00ee
:1049d0004f0078000402fb004322dd000a0242007f
:1049e0005403be004402be00d8ff37000100fb00a4
:1049f00003ad2100eacf5000c5ff3c004300dd00bd
:104a0000030040005001be004000be004f0578008a
:104a10004f04be00000006008f03b000889fbe0058
:104a20008a9fbe008c9fbe008e1f7800e0b79f005b
:104a3000f1b79f0082bf9f000000eb00a0b79f006e
:104a4000e60437008001eb0050c2b30080cf500075
:104a5000090032000100fb00efb09700ec040700f2
:104a6000e10f4000dd043200afb097008100e800a4
:104a7000a1b79f00d90437007fb19700924078001a
:104a8000d0c2b30080cf50000c00320007003c00c1
:104a90006d40500080cf50000d0032006b40400050
:104aa00080cf500019003a000e00370000c3b30059
:104ab00080cf500015003a000f0037000330a000ef
:104ac0007fb297000402e800f4b79f00eaff3700c6
:104ad0000300a000ffb297008502e800f5b79f0031
:104ae000e5ff37000310a0007fb697000c06e80032
:104af000fcb79f00e0ff37000320a0007fb09700c5
:104b00000000e800f0b79f00dbff37000318a300a8
:104b1000010032000300a1000338a30001003200ad
:104b20000320a1000100fb0002fd2f000200400055
:104b3000e90f500010003e008000eb00c1b79f005d
:104b4000020278004fb197006a10b900ffb29700d7
:104b50001501fb000001410004014100c2b79f00a4
:104b60005500fb00f5b79f0004004000e90f50001e
:104b70000d003e00f3ff37000006eb00ccb79f00ae
:104b8000a0c2b30080cf500007003a000fb89700d2
:104b9000c000780080bf9f00c1b79f007fb1970021
:104ba0000201e800f2b79f00e0c2b3007fb29700b5
:104bb000944f100021003a00830678000de0a00019
:104bc0008400e80064405000914f1000040032005f
:104bd000f1b79f008002eb00b5b79f0010003700cf
:104be0000fbe97004c0078008cbf9f00b0b79f00ad
:104bf000ffb097008180e800f1b79f0013003700f5
:104c00003fb297006a20b900000041000300400055
:104c1000b0b79f00ffb297008502e800f5b79f008c
:104c20007fb697001c01fb0003fd2f00030041002d
:104c3000e90f5000f2ff36000400370083067800c9
:104c40000dc0a0000000eb00b0b79f007fb197003f
:104c5000b2407800f2b79f00c17f9f00c0c6b3008a
:104c600080cf50002700320014003c006840500004
:104c700080cf50009d00320009003c006c40500085
:104c800080cf5000290032006b40400080cf5000a0
:104c9000720032000104e000560432008e0037003a
:104ca00060c6b30080cf50001c003200634040005b
:104cb00080cf500088003a008c00370030c7b30026
:104cc00080cf50001c00320007003c0064405000c0
:104cd00080cf5000130032000040e80080cf500029
:104ce0007d003a001100370050c7b30080cf50005c
:104cf0007d0032006340400080cf500076003a00d3
:104d00000b003700000028000d48a30001003a0006
:104d10000001200080867600ccff37000da0a000a7
:104d2000720037000d60a000700037000d50a00029
:104d30000d70a0006d0037008fb997004300780018
:104d400083bf9f00000478000000e00001003a00eb
:104d5000689b21008004eb00010037008104e8001b
:104d600089007800088044001004e000fbff3a004e
:104d70003fb297000400e00003003200890f5200a8
:104d800001003100840478000007eb00cfb29700e7
:104d9000898f520001003600098752004368de0007
:104da000e106600019003a000d067800090037009e
:104db000efb097000002200015040700e10f40004b
:104dc000030032002fb097000000e800a0b79f005a
:104dd0000c06e8008e0f5600f5ff3a000087eb0046
:104de0000a003700880078003100fb0001047800d9
:104df000efb0970006040700e10f40000300320007
:104e0000afb097008100e800a1b79f000900e9005a
:104e100080047800e10f4000f2ff3a000006eb004a
:104e20000d00e0000a003a00ec033700efb09700f5
:104e300000022000f6030700e10f400003003200eb
:104e40002fb197000201e800a2b79f000c06e8000e
:104e50008e0f5600f5ff3a00e00337008fb9970038
:104e60004300780083bf9f00cf80de0001017800ff
:104e7000820178000205be000004be000203be00ed
:104e80000002be004822de00482edd00040276004b
:104e9000c47f9f000d48a3000a0032000404e00014
:104ea00008003200e14f420006003200d1fb2f0023
:104eb000018047000448780018409800290020002d
:104ec00002003700d07f9f0019002000d2fb2f0086
:104ed00002844700a6ff3700c3fb2f00038447006e
:104ee00019002000a2ff37000d0cb3000070200055
:104ef00000826600270232000dc8a30002003200c3
:104f000064002000b4b79f000d48a30005003200e4
:104f10000fba97004401be004400be0084bf9f004a
:104f2000040037008fba97004500be0085bf9f0080
:104f30002cf90700e0af9f00f1af9f0082b79f0000
:104f400093b79f006022b8006033b8006fa8970045
:104f5000ffa897000fb197009fb1970040f9070095
:104f60000000e0000a003d006fa89700ffa897002e
:104f70000fb197009fb1970003f0a200e0af9f0030
:104f8000f1af9f0082b79f0093b79f003d00b30031
:104f90000000eb0080a79f006022b8006033b800db
:104fa0006fa89700ffa897000fb197009fb19700d7
:104fb00030f907000000e000340032006fa89700cd
:104fc000ffa897000fb197009fb197002ef9070037
:104fd00003fc2f000381470056f907000fa097003c
:104fe0000000e9006300b900a200200011000900e0
:104ff0000200d8008000fd0081a79f000100e000b2
:1050000002003d000100e90080a79f000fa4970067
:105010000840ea0029fe07006faa9700ffaa970040
:105020000fb397009fb3970079f80700a0af9f00d8
:10503000b1af9f00c2af9f00d3af9f006022b80006
:105040000600200007ff230005f907000000e0002c
:1050500002003d000800e9000b0037006022b800a4
:1050600006002000470224002fa89700bfa8970041
:105070004fa99700dfa9970031f907000000e00071
:10508000020035000800e80080a79f003fb29700ab
:10509000f80f520057003c00d0c6b300804f5200ba
:1050a000290036000485fb0042062000110009009b
:1050b0000285d80000017800010478004311dd006a
:1050c0000ba221000b0141006022b8000600200065
:1050d00007fe23000288900092889000b289900019
:1050e000228990004af80700a9002000809fbe0096
:1050f000110009000984d800000478004f00be00a8
:105100004344dd000b04440048229000d822900064
:1051100068239000f82390003df80700801f780076
:1051200001027800110009000985d8000102fd0084
:105130004f0078004322dd000b0242005403be0002
:105140004402be001f0037000480fb0009a22100ba
:10515000ea4f520014003600a2002000110009009e
:105160000280d80000017800010478004311dd00be
:10517000090141006022b8000600200007fe23005c
:1051800042209000d2209000f221900062219000f5
:105190001ff807004344dd00090444003802be0044
:1051a0002803be00070037004300dd00090040006f
:1051b0006022b8000600200007fe23005001be0058
:1051c0004000be0012f807000002be000203be004d
:1051d0006fa89700ffa897000fb197009fb19700a5
:1051e000dcf80700e0af9f00f1af9f0082b79f009f
:1051f00093b79f000fa49700e90f540015003c00df
:105200006022b8006033b8006fa89700ffa897002d
:105210000fb197009fb1970096f807000000e000db
:10522000320032006fa89700ffa897000fb19700d7
:105230009fb1970044f90700e00f5000e08f58003d
:10524000e00f5900e08f590028003a00e10f5400a8
:10525000260034000400200005002e00b6e02200e5
:10526000170124002fa89700bfa897004fa9970007
:10527000dfa997007af807000000e00002003d0077
:1052800073005400010037007200540080a79f0093
:105290000fc0970089fd0700a0af9f00b1af9f002e
:1052a000c2af9f00d3af9f000002be000203be004a
:1052b0006fa89700ffa897000fb197009fb19700c4
:1052c00052f9070020f907000205be000004be00e5
:1052d0006000b8006011b800a0a79f00b1a79f00b0
:1052e000c2a79f00d3a79f002e0037006fa897008a
:1052f000ffa897000fb197009fb1970012f9070020
:105300000205be000004be00e00f5000e08f580010
:10531000e00f5900e08f59000200350095f90700b1
:105320001300370010002000010020006011b800b9
:1053300008006000898060000a0161008b816100c3
:105340008b03d1000a83d3008982d3000882d30063
:10535000000072008180720002017300838173007b
:1053600084f907000002be000203be0079f80700be
:105370000002be000203be006fa89700ffa89700be
:105380000fb197009fb19700b1f90700a0a79f0048
:10539000b1a79f00c2a79f00d3a79f000000eb000a
:1053a00080a79f0014c0b30005b821000b00370090
:1053b0000400fb004300dd00050040005001be007a
:1053c0004000be000040e10001c8e10002d0e10061
:1053d00003d8e100030039000442e800f44f520012
:1053e000f3ff3a00c47f9f000400fb00bfb09700aa
:1053f000008040008fa09700010040004fb197004f
:1054000000075100bfb197000300e0000100320027
:105410000e07e90063806600010032000e07e90014
:105420000d28a30026003200e18066000d18a300bd
:105430000c003200d00220000100e00001003a0020
:105440000080e900efb0970071020700e10f400013
:10545000180032002fb297000402e800a4b79f00a2
:10546000140037000100e00012003200efb0970096
:105470000002200066020700e10f40000d0032002c
:10548000afb297008502e800a5b79f00090037007a
:10549000efb09700000320005d020700e10f40001d
:1054a000030032002fb697000c06e800acb79f004f
:1054b0000e07e9000e00e000f5ff3c003d0037005c
:1054c0000d38a3000a0032000b003700efb0970040
:1054d000000220004e020700e10f400003003200ee
:1054e0002fb097000000e800a0b79f000e07e9006a
:1054f0000e00e000f5ff3c00e18066000d18a300ff
:105500000c003200d00220000100e00001003a004f
:105510000080e900efb097003d020700e10f400076
:1055200024003200afb097008100e800a1b79f00cf
:10553000200037000100e0001e003200efb09700ad
:105540000002200032020700e10f40001900320083
:105550002fb197000201e800a2b79f0015003700a5
:105560000000fb004300dd0001b821000100400005
:105570003002be002003be000800be000a01be00cb
:10558000aff90700a4002000050020006033b80038
:10559000b2f907000003b000efb097001c0207004b
:1055a000e10f400003003200afb197008301e80033
:1055b000a3b79f004f7a97000440e900c07f9f0087
:1055c000e14f4000e6ff3a000b003700efb09700d4
:1055d000000320000e020700e10f4000030032002c
:1055e000afb297008502e800a5b79f000fa0970013
:1055f0000000e90080a79f000fa097000000e000d6
:10560000f2ff3c003fb6970020c1b300f20f5600f6
:1056100001003c006fe09700c07f9f00cf789700ab
:105620000100fb003fb1970000005100e0a79f0080
:105630000104e00008003200efb09700e002200013
:10564000f3010700e10f400003003200afb1970003
:105650008301e800a3b79f004f78970097fc0700ed
:105660000002be000203be002fa09700bfa097005b
:105670004fa19700dfa19700e5f6070032f8070079
:105680001e0037000000fb004300dd000cb82100c5
:105690000c0040003002be002003be000800be0027
:1056a0000a01be0066f90700a400200005002000e2
:1056b0006033b80069f907000003b000efb097004d
:1056c000d3010700e10f4000030032002fb2970022
:1056d0000402e800a4b79f00cf7a97000500fb0002
:1056e0004300dd000c0040003002be002003be007d
:1056f0000800be000a01be0058f907000205be00fe
:105700000004be004f7e97000c40e900c07f9f0060
:10571000e14f4000dbff3a000006eb0009003700d4
:10572000efb0970000032000b9010700e10f40002f
:10573000030032002fb097000000e800a0b79f00e0
:105740000c06e800efa09700810f5600f4ff3a0026
:105750000d38a300a10132000e00e0009f013400cb
:105760000006eb00efb0970000022000a801070040
:10577000e10f4000030032002fb197000201e80062
:10578000a2b79f000c06e8008e0f5600930132006e
:10579000f4ff37000d007800000cb20028003a003a
:1057a0000d00e00005003d008fb997004305be00e5
:1057b0004304be0083bf9f00140037000d48a300c0
:1057c0000b0032000fba97004400be0084bf9f0058
:1057d0004f89de00cf91de000002be000203780098
:1057e000820378000605be000404be0007003700ef
:1057f0008fba97004500780085bf9f0000047800ad
:10580000cfc4de00090578008a057800e00f540057
:10581000e08f5c00e00f5d00e08f5d0020003d0048
:105820003d00b3006000b8006011b80008045000eb
:10583000898458000a0559008b85590018003700e3
:105840000d00e00005003d000fbe97004c05be00b6
:105850004c04be008cbf9f00110037000d48a30010
:10586000080032008fba97004500be0085bf9f0038
:1058700004017800840178000205be000004be0027
:10588000070037000fbe97004c0078008cbf9f00c8
:1058900000047800090020000a0020000b0020000e
:1058a0003fb097000000e00007003a00e00f54000e
:1058b000e08f5c00e00f5d00e08f5d0002003a00c9
:1058c00011002000b1b79f000d0778000e0cb20048
:1058d00000042000800f57002f00320003003c001e
:1058e0000e00e000070032003f00370000082000f3
:1058f000800f570014003200000c2000800f57006a
:1059000039003a0014c0b30005b821000b0037007d
:105910000400fb004300dd00050040005001be0014
:105920004000be000040e10001c8e10002d0e100fb
:1059300003d8e1002b0039000442e800f44f520084
:10594000f3ff3a002700370000012000010020008b
:105950006011b80014c0b3000040e10001c8e100cc
:1059600002d0e10003d8e1001e003900450020000c
:105970000000d0008180d2000281d2008381d20059
:105980008502e900faff3a000442e800f04f5200b5
:10599000f1ff3a00130037008000200001002000d2
:1059a0006011b80014c0b3000040e10001c8e1007c
:1059b00002d0e10003d8e1000a0039003c002000d9
:1059c0000000d0008180d2000281d2008381d20009
:1059d0000c06e900faff3a000442e800f54f5200d5
:1059e000f1ff3a00c47f9f00cf7897000100fb00d1
:1059f0003fb19700820f500002003d00c27f9f0020
:105a000004003700bfb19700808f510001003d00b6
:105a1000b0b79f004fb297000400e00004003200ce
:105a200063806600020032000402e900c4b79f00f0
:105a30000de8a3000b003200cfb297003fb69700ed
:105a40008c8f520003003c000000eb00c0b79f00a9
:105a500004003700cfb097003fb19700828050001c
:105a6000c1b79f00cf7997000300fb000002eb0055
:105a700094a79f00cfb29700808f5200020034009d
:105a80000080520090a79f000d28a300370032002d
:105a9000e18066000d18a3000c003200d002200047
:105aa0000100e00001003a000080e900efb097003b
:105ab000d7000700e10f40000e0032002fb697001c
:105ac0000c06e800acb79f000a0037000100e000b8
:105ad00008003200efb0970000022000cc00070061
:105ae000e10f4000030032002fb097000000e800f3
:105af000a0b79f009fa097000100e0000f003200b8
:105b00000006eb00efb0970000032000c000070084
:105b1000e10f4000030032002fb197000201e800be
:105b2000a2b79f000c06e8009fa19700830f5600c4
:105b3000f4ff3a000002eb0094a79f00bfb2970069
:105b4000c328dd0080b721008080400091af9f0016
:105b50004228dd006400500080af9f006328b90038
:105b6000f0a79f0063065000820037001fa6970031
:105b70000c00e00011003200688066000f003a005f
:105b800000067800efb0970000022000a000070098
:105b9000e10f4000030032002fb097000000e80042
:105ba000a0b79f000c06e8009fa09700810f560049
:105bb000f4ff3a000001eb0092a79f00e18066002d
:105bc0000d18a3000c003200d00220000100e000fc
:105bd00001003a000080e900efb097008c00070058
:105be000e10f4000d5ff3200afb197008301e8001c
:105bf000a3b79f00d1ff37000100e000cfff3200c4
:105c0000efb097000002200081000700e10f400084
:105c1000caff32002fb297000402e800a4b79f0029
:105c2000c6ff370000042000800f5700300032000c
:105c300003003c000e00e000070032003d0037008a
:105c400000082000800f570011003200000c2000d7
:105c5000800f570037003a001fa897003002be009f
:105c60002003be000800be000a01be00f4f70700d2
:105c7000a4002000050020006033b800f7f70700fb
:105c800004c3b30004424000c47f9f0029003700d2
:105c9000d59b2100d5b79f000d58a30002003a0004
:105ca000e09c2100d0b79f001400200005002000d8
:105cb0006033b8008fa897008100e9000500330029
:105cc0000402d0008582d2000683d2008783d200ee
:105cd000f9ff37000800be000a01be00d8f7070030
:105ce0006f0060005fb197006240780010003700dd
:105cf00014002000050020006033b8008c017800fb
:105d00008301e900050033000402d0008582d2003f
:105d10000683d2008783d200f9ff37000800be0057
:105d20000a01be00c6f70700674060000043b000ec
:105d3000c07f9f004f7a97000400fb00efb09700f0
:105d400033000700e10f400003003200afb29700bc
:105d50008502e800a5b79f001fa8970068005000c3
:105d600090af9f008fa89700e480500081af9f0004
:105d700063065600d0ff2f003fb197000090b90096
:105d8000ffa197000080410063005000800f560083
:105d9000a4ff3a000d38a300100032001fa29700a4
:105da0000400e0000d0034000006eb00efb09700a7
:105db0000002200016000700e10f4000030032003f
:105dc000afb297008502e800a5b79f000c06e80077
:105dd0001fa09700800f5600f4ff3a007fb1970094
:105de000b2407800f2b79f00c17f9f000104e0003d
:105df00014fb3a002fb097004f0778004f06be0003
:105e00004f05be004f04be008f03b1000000060026
:105e1000889fbe000001780001047800b100900066
:105e20000118a3003d0032000198a30003003a00ce
:105e3000180090000000e00038003a000190a00037
:105e40003104980082047800f90fb2001800900025
:105e50000000e00002003a0028009000000c7800ea
:105e6000ea8f540006003a00380090000078a30042
:105e700003003a0088007800d0002000e4ff07000b
:105e80009800900058009000808f50000b00320066
:105e90000100e80010049800180078000958780004
:105ea000000c780011c0b300409f21000148780029
:105eb000ea8f54000600320019003700880078008d
:105ec00009407800190007008004780014003700aa
:105ed000380090000088a3001100320018019000e3
:105ee000a80090004800900021f30700980090005f
:105ef000810f500004003200380090000003b3000e
:105f0000300498008084eb000000eb00100498003f
:105f100028009000000c7800010037008084eb001e
:105f2000090078004f04be00000006000200fa00dd
:105f3000889fbe00a0ff9f0001047800b100900080
:105f4000810478000904b200020032000000fb0066
:105f5000360037000118a30005003a000103b30022
:105f600031049800190498000080eb002f003700de
:105f7000580090000000e00006003a004800900041
:105f800012002000e6805700f9f20700190498007b
:105f900024003700280090000000e00008003a00cc
:105fa000009f210020049800000c780020002000b1
:105fb00050049800100498000130a00031049800ab
:105fc00018019000a800900048009000e8f2070037
:105fd00028009000000c78000080eb00100498006e
:105fe00018007800aff8970001587800000c78008e
:105ff0002ff89700ea4f50000a003a00380090004e
:106000000088a3000700320018019000a80090004b
:1060100048009000d6f2070019049800a8009000ec
:10602000010c7800aff897000100fb004f04be00a0
:086030000080fa0000000600e8
:020000040000fa
:020000040001f9
:0457f00013ff0000a3
:020000040000fa
:020000040001f9
:0457f400c0f40000fd
:020000040000fa
:020000040001f9
:0457f8004f19000045
:020000040000fa
:020000040001f9
:0457fc006d3f0000fd
:020000040000fa
:1000080004140000081400000c1400001014000070
:1000180014140000bc140000bc140000bc14000040
:10002800181400001c140000201400002414000000
:10003800bc140000281400002c1400003014000028
:1000480034140000381400003c1400004014000070
:100058004414000048140000bc140000bc14000044
:100068004c140000501400005414000058140000f0
:100078005c140000bc140000bc140000bc14000098
:10008800bc14000060140000641400006814000030
:100098006c14000070140000741400007814000040
:1000a8007c14000080140000bc140000bc14000084
:1000b800bc14000084140000881400008c14000094
:1000c800bc14000090140000bc140000bc14000014
:1000d800bc14000094140000bc140000bc14000000
:1000e800bc140000981400009c140000bc1400000c
:1000f800bc140000bc140000bc140000bc140000b8
:10010800bc140000bc140000bc140000bc140000a7
:10011800bc140000bc140000a0140000bc140000b3
:10012800bc140000a4140000a8140000ac140000c3
:10013800bc140000bc140000bc140000bc14000077
:10014800b0140000bc140000bc140000bc14000073
:10015800bc140000b4140000bc140000bc1400005f
:10016800bc140000bc140000bc140000bc14000047
:10017800bc140000bc140000b8140000bc1400003b
:10018800bc140000bc140000bc140000bc14000027
:10019800bc140000bc140000bc140000bc14000017
:1001a800bc140000bc140000bc140000bc14000007
:1001b800bc140000bc140000bc140000bc140000f7
:1001c800bc140000bc140000bc140000bc140000e7
:1001d800bc140000bc140000bc140000bc140000d7
:1001e800bc140000bc140000bc140000bc140000c7
:0801f800bc140000bc1400005f
:020000040000fa
:10603800000000000000000000000000002f000029
:106048000000000000070000000700000014000026
:106058007f1400007f140000242a00007f2a00001b
:1060680012c40000c810000026460000364900008f
:106078005522000050000000050300000000000049
:10608800001c000022410000000000004122000026
:106098001c000000140800003e080000140800005e
:1060a800083e000008080000000000005030000012
:1060b8000010000010100000101000000060000028
:1060c800600000000020000010080000040200002a
:1060d8003e510000494500003e000000427f00009c
:1060e80040000000426100005149000046210000c4
:1060f800414500004b31000018140000127f0000d9
:106108001027000045450000453900003c4a0000c2
:106118004949000030010000710900000503000032
:106128003649000049490000360600004949000088
:10613800291e0000003600003600000000000000a4
:10614800563600000000000008140000224100003c
:106158000014000014140000141400000041000092
:106168002214000008020000015100000906000086
:1061780032490000595100003e7e00001111000014
:10618800117e00007f49000049490000363e0000aa
:1061980041410000412200007f41000041220000ef
:1061a8001c7f000049490000494100007f090000a8
:1061b80009090000013e000041490000497a000039
:1061c8007f080000080800007f000000417f0000f1
:1061d8004100000020400000413f0000017f000016
:1061e80008140000224100007f40000040400000e9
:1061f800407f0000020c0000027f00007f040000c6
:10620800081000007f3e000041410000413e0000b0
:106218007f09000009090000063e00004151000006
:10622800215e00007f090000192900004646000091
:106238004949000049310000010100007f010000c8
:10624800013f000040400000403f00001f200000c8
:10625800402000001f3f000040380000403f000081
:1062680063140000081400006307000008700000b1
:106278000807000061510000494500004300000084
:106288007f41000041000000552a0000552a000007
:1062980055000000414100007f000000040200009a
:1062a800010200000440000040400000404000009f
:1062b8000001000002040000002000005454000007
:1062c800547800007f48000044440000383800003b
:1062d80044440000442000003844000044480000c2
:1062e8007f3800005454000054180000087e000055
:1062f80009010000020c000052520000523e00004a
:106308007f0800000404000078000000447d0000bd
:106318004000000020400000443d0000007f0000d5
:106328001028000044000000004100007f400000e9
:10633800007c000004180000047800007c080000bd
:106348000404000078380000444400004438000089
:106358007c14000014140000080800001414000045
:10636800187c00007c0800000404000008480000b5
:106378005454000054200000043f00004440000032
:10638800203c000040400000207c00001c20000051
:10639800402000001c3c000040300000403c000051
:1063a8004428000010280000440c00005050000051
:1063b800503c000044640000544c000044000000bd
:1063c80076b2000042b2000008b20000eeb1000050
:1063d8007ab200001a030000310000003200000009
:1063e80033000000340000003500000036000000d3
:1063f80037000000380000003900000039000000b4
:1064080039000000390000003a0300004d00000088
:106418006900000063000000720000006f000000c7
:1064280063000000680000006900000070000000c0
:10643800200000004d000000610000007300000013
:1064480073000000200000005300000074000000ea
:106458006f0000007200000061000000670000008b
:1064680065000000200000004400000072000000e9
:106478006900000076000000650000003403000099
:106488004d00000069000000630000007200000079
:106498006f00000063000000680000006900000051
:1064a800700000002000000054000000650000009b
:1064b80063000000680000006e0000006f0000002c
:1064c8006c0000006f000000670000007900000009
:1064d80020000000490000006e000000630000007a
:1064e8002e00000004030000090400000902000057
:1064f800200000000101000000c000003209000077
:10650800040000000002000008060000500000001f
:10651800070500008102000040000000000700009d
:106528000501000002400000000000001201000008
:10653800100100000000000000080000d80400005e
:106548000900000001000000010200000301000032
:10655800008000000402000020000000000000008d
:106568004d690000637200006f63000068700000ee
:106578004d6100007373000020530000746f000029
:1065880072610000676500002020000020200000e4
:106598003030000030310000466900006c650000b2
:1065a8007379000073740000656d0000204f0000cf
:1065b8004b000000466900006c6500006c69000033
:1065c8007374000000250000463a000020250000f2
:1065d800642f000025640000204200003a250000d6
:1065e800322e0000326600005620000000720000c3
:1065f800002000002d2d000020550000534200000f
:10660800204d00004f440000452000002d2d0000c3
:1066180000200000636800006172000067690000e4
:106628006e6700002e2e00002e0000002063000080
:1066380068610000726700006564000020200000a7
:10664800200000002a2e00002a000000253100004a
:1066580031730000202d000044490000522d000035
:10666800002500003131000073200000256c000077
:106678006442000000250000313100007320000052
:0c668800256c0000644b000000000000c6
:020000040000fa
:10669400881f7800000478000202be00e10f510058
:1066a400e08f59000d003e00a04890008180fb005f
:1066b400304890004800dd0001017000c848900097
:1066c4008180fb00584890004800dd008101700083
:1066d4000400410085804900140037006203510022
:1066e400e0835900106090000080fb00010020004e
:1066f4000032b8000780b90085024000e8489000e5
:106704008180fb00784890004800dd0001017000a2
:10671400885090008180fb00185090004800dd00f4
:106724008101700004004100858049004f04780015
:1067340000000600ec874700889fbe008a9fbe00c9
:106744008c9fbe008e1f7800000778009379ef00bd
:106754002060900090f79f00e14f50000c003a0039
:106764006310b8006319b900810041006141600001
:1067740082f79f008106d1000086d30080ff2000ad
:1067840001002000c0b79f00d1b79f000800370068
:1067940002064100838649008040eb0081f79f0098
:1067a40082ff2f0003002000c2b79f00d3b79f00d1
:1067b4008e5890008180fb001e5890004800dd0038
:1067c40001057000ae5890008180fb003e58900097
:1067d4004800dd0081057000ee4090008180fb00e0
:1067e4007e4090004800dd00010470008e48900057
:1067f4008180fb001e4890004800dd008104700089
:106804000a01be000c00be001df20700080440008f
:1068140089844800e8b79f00f9b79f0061025500da
:10682400e0825d008c0062000d8062006101b800ae
:10683400c014dd00080020006109b80002047400df
:1068440083847400f0cc800001cd80006fb1970088
:10685400ffb19700800f5100818f59003f003a002b
:106864009ff19700e2cf51004d003200e1cf51007b
:1068740089003a00403a2100684078000085fb0016
:106884000b0020008ff097000104e00004003200a8
:106894004c59dd004455de000a057100c45dde007c
:1068a40061004400e0804c00040160000580600049
:1068b40001002000c006dd000c0020006110b800bb
:1068c4000006760081867600e00f5600e08f5e00b9
:1068d4000b003a006fb09700ffb0970061044000ce
:1068e400e0844800423a21000800be00501e070020
:1068f4000004e0001e003200f8cc880009cd8800b6
:10690400403a21006c4078000080fb000100200028
:106914000ff197000204e00007003200c409dd0013
:10692400cc00de00818071004400dd000a004000dc
:106934008b804800590037006f0060000100200080
:10694400c808dd000080fd00804078000040eb00b6
:106954000a0040008b804800500037000200be004f
:10696400423a2100321e07000004e00005003a000c
:10697400f0ff2f0001002000f0cc880001cd88003a
:106984004c0037006fb09700ffb09700f0cc880040
:1069940001cd88002e609000e24f500004003a00c0
:1069a400403a210068007800010020003b003700d5
:1069b400e14f500038003a00403a21006840780026
:1069c4000083fb00070020008ff097000104e00023
:1069d400040032004c39dd004433de00060371004c
:1069e400c43bde0061024400e0824c008e599000fa
:1069f4008381fb001e5990004811dd0003007100e3
:106a0400ae5990008381fb003e5990004811dd008f
:106a14008300710061005000e080580004016000b0
:106a2400058060006102b800c020dd000000200085
:106a34006112b8000400700085807000423a2100a1
:106a4400604079000080fb00010020008ff1970076
:106a54000304e000070032004409dd00cc00de003e
:106a6400810071004400dd0006004000878048007a
:106a74000a0037006f00600001002000c808dd0034
:106a84000080fd00804078000040eb0006004000dc
:106a940087804800010037006000b8004fb19700bc
:106aa400dfb19700820f5000838f58000100390036
:106ab4000200be004f0778004f06be004f05be001f
:106ac4004f04be00cf00b10000000600e687470077
:106ad400889fbe008a9fbe008c9fbe008e1f7800d8
:106ae40080047800f1b79f0082f79f0010047800bb
:106af40070139000801b9000101d9000a01d90004a
:106b040011027800885890008180fb00185890008a
:106b14004800dd0001017000a85890008180fb004e
:106b2400385890004800dd00810170004b18dd00ea
:106b34004511de0002017000c519de008286fb00eb
:106b4400110009000d82d80000467800e00f5300c0
:106b5400e08f5b00060032000080fb0018619000ab
:106b64000281fb00110009000280d8000146780070
:106b74008ff097000104e00002003a006f00620009
:106b840071003a000c04e00002003a008d0f52003c
:106b9400030031000ff097000004e0001b003200f6
:106ba400e00f5300e08f5b0002003a000605be00d0
:106bb400190037008ff097000104e000080032004c
:106bc400186190000281fb0002e9b900110009007c
:106bd4000282d800000178000247780009003700db
:106be4001ec0b3000a01be0008007800d1fe0700f1
:106bf4000005be00e90f4000e08f58004e003e0043
:106c04000e47e9000e04e000f6ff3a00e90f4500e4
:106c1400e08f5d0048003e009a1c9800ab1c980071
:106c24000a01be000800780099fe07000001be00ba
:106c340070c4800081c480008a0f50008b8f58007c
:106c4400050032000c80fb0001002000000241001e
:106c540081824900150037000c80fb0001002000f0
:106c64000202400083824800e84890008180fb00d3
:106c7400784890004800dd000101700088509000c1
:106c84008180fb00185090004800dd0081017000f5
:106c9400820f5200838f5a0004003900286090004c
:106ca4008000eb00e34f500032003a008004eb0018
:106cb400d9cc88000900780093f9b7001880fb004c
:106cc400184190004811dd00000171000400be006d
:106cd400571d0700e14f5000020032008900780080
:106ce400120037000ff097000004e0000b003200a0
:106cf4001880fb00184190004811dd00000171006c
:106d0400ffb0970011007800110009000d80d80031
:106d1400c508dd0081004100040037009880fb00b5
:106d2400184090004800dd008100700096b9ef0023
:106d340098b9ef000f00370010c0b30094f9b70002
:106d44008000eb000b0037001880fb009840900097
:106d5400c808dd0080807000811f780011000900e0
:106d64000d82d80001007800cf0078004500dd00d6
:106d740080804000010078004f0778004f06be0075
:106d84004f05be004f04be006f00b10000000600b6
:106d9400ec874700889fbe008a9fbe008c9fbe0080
:106da4008e1f7800800678000205be001006780069
:106db4002c60900082ff200003002000d2b79f00c7
:106dc400e3b79f00e14f50000400320080ff2f0022
:106dd40001002000d0b79f00e1b79f000a04be0065
:106de4008040eb0081ef9f000087eb000ed9b900d3
:106df400f2b79f0083bf9f003d019000cd0190003a
:106e04000c0078004bfe07000002be00e10f4000ba
:106e1400e08f580003003a0083c0b30083ef9f0063
:106e240016003700cc5090008180fb005c5090002d
:106e34004800dd0001017000ec5090008180fb00ef
:106e44007c5090004800dd0081017000820f5200e8
:106e5400838f5a0002003900a0c0b30080ef9f0066
:106e64005fb19700efb19700820f5200838f5a00f1
:106e740002003900c3c3b30083ef9f00b406980037
:106e8400c506980061045400e0845c000e51b8000b
:106e94000ed0b90003004000ffb09700810140000c
:106ea4000201450083814d00820f5400838f5c00f2
:106eb400050032000fe997000204e000ceff320023
:106ec40082417800010037008fe997000380fb00be
:106ed4004f0778004f06be004f05be004f04be00aa
:106ee400cf00b1000000060060c078000080fb0005
:106ef40000000600889fbe00000478001080fb009c
:106f0400184190004811dd00000171006000b800d4
:106f1400c71c0700e14f50000400320080c0b300da
:106f24008cf8b70080002000910037009880fb00a7
:106f3400184090004800dd0081047000e9f89300d7
:106f440050c5b30080cf500052003a00f9f89300c6
:106f5400a0cab30080cf50004e003a006103200065
:106f640009007800e0ff070061c4b300814f5000be
:106f740021003a007103200009007800daff0700bd
:106f840011c4b300814f50001b003a00810320005c
:106f940009007800d4ff070041c5b300814f5000b9
:106fa40015003a009103200009007800ceff070085
:106fb40011c3b300814f50000f003a00610220005a
:106fc40009007800c8ff070091c2b300814f500048
:106fd40009003a000040eb00204498003044980037
:106fe400404498005044980020c0b30020649800a6
:106ff4000000eb005e003700210520000900780046
:10700400b9ff070061c4b300814f500021003a006a
:107014003105200009007800b3ff070011c4b30054
:10702400814f50001b003a00410520000900780000
:10703400adff070041c5b300814f500015003a0071
:107044005105200009007800a7ff070031c3b300f1
:10705400814f50000f003a002104200009007800fd
:10706400a1ff070091c2b300814f500009003a000c
:107074000040eb00204498003044980040449800bd
:107084005044980030c0b300206498000000eb0026
:1070940037003700e9f8930050c5b30080cf5000a3
:1070a40004003a00f9f89300a0cab30080cf50005e
:1070b4000400320040c0b3008cf8b7004000200048
:1070c4002b003700e9c093008180fb0079c0930056
:1070d4004800dd000101700089c893008180fb0035
:1070e40019c893004800dd00810170002244980013
:1070f4004810de0030449800434498004818de00ed
:107104005044980029c09300ee4f500015003e00f3
:107114000000fb00120020008010dd0000052400a8
:107124000080600007003a000080210000806000b9
:1071340008003a000118a3000a00320022649800f3
:107144000b00370020c0b300206498000000eb005f
:1071540007003700c0c1b3008cf8b700c00120009d
:107164000300370050c0b3008cf8b7005000200073
:107174004f04be0000000600810040001140900052
:107184004800dd009180fb00010070000000060053
:10719400889fbe008a9fbe008004780001047800a6
:1071a4008180e800f4ff070001002000c005dd0035
:1071b4000a0020008800780009007800eeff07002c
:1071c4000100200000007500818075004f05be009d
:1071d4004f04be0000000600e6874700889fbe00fb
:1071e4008a9fbe008c9fbe008e1f78000005780029
:1071f4001080fb001a4190004811dd00000171006d
:107204002a4290000482fb00ba419000c819dd00b4
:10721400048071004a4290000482fb00da4190002d
:10722400c819dd0084807100011c070083c0b3000d
:1072340081002000e14f5000e4003a009a80fb00f6
:107244001a4090004800dd0081047000e9f89300c2
:1072540050c5b30080cf5000d7003a00f9f893002e
:10726400a0cab30080cf5000d3003a00e100200050
:1072740009007800c0ff070000047800d100200056
:107284000900780018ff0700106598006140b800f5
:10729400f0b79f0081bf9f00aa4190008381fb004b
:1072a4003a4190004811dd0003007100ca4190008a
:1072b4008381fb005a4190004811dd008300710076
:1072c4007fb197008fb99700000041008180490089
:1072d400604598004801de0072459800014d980011
:1072e4004808de00104d98000101200009007800d4
:1072f400fdfe070000659800610120000900780088
:107304009dff07006101b800f80f2000425d98005e
:107314004811de00525d98008000eb00615d98002a
:10732400715d98000000e0000b003a00410220006b
:107334000900780096ff070008016000425d98008c
:107344004801de00525d980008816000625d98008b
:107354004808de00705d9800ea4090008180fb00e0
:107364007a4090004800dd00010370008a489000d4
:107374008180fb001a4890004800dd008103700002
:107384000a6490000884fb0009002000ca58900099
:107394008180fb005a5890004800dd000102700013
:1073a400ea5890008180fb007a5890004800dd0084
:1073b400810270000440b80005c4b9008880400010
:1073c4000603400087834800264d98004830de00bd
:1073d400304d9800474d98004838de00504d9800d5
:1073e4001a80fb001a4490004844dd000004740035
:1073f40011012000080078005fff07008004780076
:10740400205598004800de003055980031012000d6
:107414000800780058ff07006106b8000000e0008b
:1074240004003a00010220000800780058ff070019
:107434000006be00b1002000080078004eff0700df
:10744400800578000000e0005e0032006107600003
:107454005c003a004548dd00008045000000e9007a
:10746400110009000b80d8000a6490000884fb0016
:1074740009002000ca5990008381fb005a599000ea
:107484004811dd0003037100ea5990008381fb0079
:107494007a5990004811dd00830371000641b80059
:1074a40007c4b900888141007fb297008fba970062
:1074b400040141008581490000004100e080490049
:1074c4000000560081805e001a6190000281fb007a
:1074d40003002000eaee07000002be0040559800b9
:1074e4004800de0050559800655598004828de0095
:1074f4007055980040ff2000800f5200e08f5a0022
:1075040004003e0010c0b300206598008e4178004e
:1075140007003700c3c1b300ec0f4200e08f5a00ec
:1075240003003e0020c0b300206598008041eb00ba
:107534008e38ef009038ef00aa4890008180fb005d
:107544003a4890004800dd0001027000ca489000eb
:107554008180fb005a4890004800dd0081027000e1
:107564002a5190000281fb003a5090004800dd004f
:10757400020070004400de0000004200e0804a0087
:10758400604d98004801de00724d98000155980046
:107594004808de001055980000202000808f550018
:1075a40008003e008000eb000304e0000900320004
:1075b4008380fb000500370033c0b3003100200096
:1075c4000200370013c2b300110220000300780048
:1075d4008cf8b700010078004f0778004f06be0012
:1075e4004f05be004f04be006f00b100000006004e
:1075f400881f7800000478000040eb003064980095
:10760400405a2100004c78004800de0010449800e5
:10761400011b0700000178001004e00004003200a0
:1076240060c0b3008cf8b700600020002000370071
:1076340000102000120060001000320012009000c0
:1076440001002000005c98004800de00105c9800f7
:107654000000eb00205c9800305c980092009000e1
:1076640000202000808f50000400360010c2b300b8
:107674008cf8b700100220000d00370008007800d5
:107684001cfe07000004e00004003a000800780033
:10769400d1fe07000004e000020032000080fb007d
:1076a4000300370010c0b300306498000000eb0002
:1076b4004f047800000006002089210012c0b300a6
:1076c4005189210002587800808f5000fdff3a0054
:1076d4000040eb0093f9b7009cf9b7000080eb0081
:1076e4008080eb00f0cc880001cd8800b0cc88000d
:1076f400c1cc8800c71a0700007c2100bcff07002a
:107704008000eb000004e0002d003a00017c210021
:1077140080cc8000010878008000eb0080cc8000e1
:107724005100980080cc8000610098006011b8007e
:1077340080cc8000720098000308980080cc800000
:107744001208980023089800c1c5b30080cc8000bb
:10775400415898001200200003c2b300fc0041000d
:1077640080cc8000837078000201e800eb0f5100a8
:10777400faff3a000001eb0080cc80004210980030
:107784000101200080cc80006110980080cc800032
:1077940074c4800085c48000741098000518980093
:1077a40080cc800074c4800085c4800014189800c4
:1077b40025189800020078008cf8b700110020000a
:1077c40001007800000006008000eb00210898000a
:1077d4005008900001002000000006008c78ef00a3
:1077e4000001eb0061892100808f500004003a0001
:1077f40011c0b30020892100017178000400370012
:107804000201e8006103b000e30f5100f6ff3a0003
:1078140000000500881f78000003780030089000fd
:10782400ff416000c500de00f4c3b30004c1600082
:107834004b02de0046089000ff42600080007800a2
:10784400011eb200c50bde004904de00fccf51006e
:1078540007003e000340e8008080fb000280fb003c
:107864008481fb000581fb000782fb002b003700ad
:10787400a0c3b300804f510007003e000240e8005f
:107884000080fb008481fb000581fb000782fb0074
:107894008000eb0021003700f64f520007003e0045
:1078a4000440e8008081fb000581fb000782fb00a7
:1078b4008000eb000100780018003700fdcf520073
:1078c40007003e000540e8000081fb000782fb0042
:1078d4008000eb0001007800810178000f00370080
:1078e400ebcf530007003e000740e8000082fb0096
:1078f4008000eb0001007800810178001200200074
:10790400060037000844e8008000eb00010078001e
:107914008101780012002000020278004500dd0099
:1079240001007000cb18dd0001007000300b9800de
:107934004520dd0000007100c940dd000100700039
:10794400400b98004f04780000000600889fbe009a
:107954008a9fbe008c9fbe008e1f780000067800b0
:1079640001077800910078006f8060000c003a00f5
:107974000100e0000a0032007c1090008c18900096
:10798400101e9800211e980012c0b3008e007800cb
:107994000c0078004dfc07008005780005003700d6
:1079a4000041eb008e0078000c00780047fc0700d3
:1079b400800578000b00e0003b0032009b4078001b
:1079c40010002000fbcf4000380032000104e0002a
:1079d400350032008b0478007c0446000045eb003f
:1079e4003980fb003dec0700005c78000a45e800a4
:1079f400e84f5500faff3a00e88645008004eb00a2
:107a0400094445000884fb007c0444000c04440041
:107a14003d80fb0031ec0700004c78008904e8004d
:107a2400e38f5400f6ff3a001e0778004e169800c4
:107a340050ceb3001b4068000080fb000000e9004a
:107a44004f04de006b089000fb089000100e9800b5
:107a5400210e98000b0078005bff070010069800c9
:107a6400210698003b4890000080fb0060169800b7
:107a74000048a30006003200fb009000410e98006d
:107a84008b0d90005b0e98000880fb000700370008
:107a94003b089000400e9800cb0d90005b0e9800c0
:107aa4000880fb0001003700200020004f07780009
:107ab4004f06be004f05be004f04be000000060086
:107ac400889fbe008a9fbe008c9fbe000004780081
:107ad40001057800100678003c6090007d002000cd
:107ae4000004e0003e0032007810900088189000f6
:107af400101c9800211c98001a0078000000e00077
:107b0400020032006f0060000700320012c0b300b0
:107b14008a00780008007800ecfb0700bd01200013
:107b24000000e000010032008006eb008a007800cb
:107b34000800780085ff07000004e000020032001e
:107b4400bd002000260037006000b80070049800d3
:107b5400010c980018009000a800900030049800d0
:107b6400410498008004eb005904980069049800cb
:107b74000001be000c007800c5fa07000005be0035
:107b8400d8cc8800b0cc8000c1cc8000800f5500d8
:107b9400818f5d000d0032000900780093f9b70071
:107ba4001c80fb001c4190004811dd0000017100a5
:107bb4000a00be009e1907000004e00001003a001c
:107bc4008d002000bacc8800cbcc88003808900007
:107bd400a1ff2f00010060000010a000300c9800ed
:107be4000d0078004f06be004f05be004f04be00d6
:107bf40000000600e8874700889fbe008a9fbe00f9
:107c04008c9fbe008e1f7800000678000107780064
:107c140082f79f0093f79f0040109000e0b79f0009
:107c24007c1090008c189000101e9800211e980063
:107c34006e1090000080ea00f0b79f006fb09700cc
:107c44000000e000020032006f0060007a003200a1
:107c540012c0b300f48057000c0078009bfb0700af
:107c64000000e00074003a0071003700f48057000f
:107c74000c00780035ff0700e24f5000700032001e
:107c84000004e0005d003a00ec109000f103b20043
:107c94001ff197000204e00003003200e14f51009d
:107ca4005d003a0014003700e88f50005a0032009b
:107cb4007c054600fc044700bbc0b3001a80fb00ef
:107cc4008deb0700000478001980fb008aeb0700a5
:107cd400800f54004d003a008b45e9000a05e80086
:107ce4008904e8000b04e0004a003200f3ff370087
:107cf400b8002000210037007fb197000100610027
:107d040045003a00ef8f500043003200ce589000f7
:107d1400a0c2b30080cf500017003200fc0546001b
:107d24007c0547008dc0b3009b4078009a447800de
:107d3400a0c2b30080cf54000f0032007540400051
:107d440080cf5400070032000180fb006aeb07007b
:107d5400000478000980fb0067eb0700800f5400e3
:107d6400e3ff3a008d46e9008b05e8000a05e800c8
:107d74000d04e000ecff3a000004eb00ce6090003c
:107d8400a0c2b30080cf5000230032000800e000fe
:107d940021003a004b0220008c8545004a02200055
:107da4000e0545003dc0b3009b4078009a4478001e
:107db400a0c2b30080cf54001600320075404000ca
:107dc40080cf5400070032000180fb004aeb07001b
:107dd400000478000980fb0047eb0700800f540083
:107de4000a003a008d46e9008b05e8000a05e80020
:107df4000d04e00007003200ebff37000ff097009e
:107e04000004e0000300320003003700b800200043
:107e1400010037000004eb00efb097008100e80098
:107e2400e1b79f000800e000050032008fff370033
:107e3400b801200002003700b80020008bff370093
:107e4400080078004f0778004f06be004f05be00bb
:107e54004f04be008f00b10000000600889fbe00e2
:107e64000004be008018900070109000101c980050
:107e7400211c980012c0b3000800be0013fb0700c9
:107e8400800078000000e000130032001040780009
:107e94000004e00010003200fb4f40000e003200ee
:107ea40031489000ef4f50000c003a00990ce80064
:107eb4000041eb000800be0004fb070080007800ce
:107ec4000000e0000400320030489000ef4f500002
:107ed40002003a00f5ff37008000eb000100780053
:107ee4004f04be00000006000001eb006303200005
:107ef400617079000201e800830f5100fcff3a0031
:107f0400000006008c78ef0080089000700090005c
:107f1400000006006011b800720098000308980081
:107f24008000eb006100980051009800100190005f
:107f3400a00190003200980043009800d1cc880042
:107f4400000006008cd8bf000080fb000000060083
:107f54008c78ef000002eb00700190008009900023
:107f6400a008900010089000800f5100818f5900e4
:107f740001003a001400200004007800000006000c
:107f8400ee874700889fbe008a9fbe008c9fbe007c
:107f94008e1f780001077800830478000289b900f5
:107fa4008206780003002000f2b79f0083bf9f0081
:107fb400e0b79f008c78ef00190478006906900000
:107fc40079029000890a9000c4b79f00d5b79f003a
:107fd40039089000e200600003003a00e0c1b300f9
:107fe4008cf8b700a1003700d0cc8000808f5400fb
:107ff400250032006162b800885890008180fb003f
:10800400185890004800dd0001017000a858900045
:108014008180fb00385890004800dd008101700029
:10802400820f5200838f5a0017003200d9cc880087
:1080340039019000c90190000800780094f9070004
:108044005901900002054000e08548009379ef0053
:108054001880fb00184190004811dd0000017100f8
